:020000020000FC
:1000000033C00000189500001895000018950000F6
:10001000189500001895000018950000189500002C
:10002000189500001895000018950000189500001C
:10003000189500001895000018950000189500000C
:1000400018950000189500001895000018950000FC
:1000500018950000189500001895000018950000EC
:10006000189500001895000008E00EBF0FEF0DBFB7
:10007000789400E010E028ECBFEFA0E14081040F8D
:0E0080001395021718F4A3950C943E00FFCFC1
:00000001FF
